:100000000C9462000C948A000C948A000C948A0070
:100010000C948A000C948A000C948A000C948A0038
:100020000C948A000C948A000C948A000C948A0028
:100030000C948A000C948A000C948A000C948A0018
:100040000C94BE020C948A000C942E030C940803AA
:100050000C948A000C948A000C948A000C948A00F8
:100060000C948A000C948A000000000024002700F1
:100070002A0000000000250028002B0000000000DE
:1000800023002600290004040404040404040202DA
:100090000202020203030303030301020408102007
:1000A0004080010204081020010204081020000012
:1000B0000008000201000003040700000000000027
:1000C00000007C0411241FBECFEFD8E0DEBFCDBFFF
:1000D00011E0A0E0B1E0E2E6F9E002C005900D9287
:1000E000A035B107D9F721E0A0E5B1E001C01D922C
:1000F000A83FB207E1F710E0C2E6D0E004C02197C4
:10010000FE010E94A904C136D107C9F70E9460030D
:100110000C94AF040C940000833081F028F48130FB
:1001200099F08230A9F008958730A9F08830C9F09D
:100130008430B1F4809180008F7D03C08091800075
:100140008F7780938000089584B58F7784BD08955C
:1001500084B58F7DFBCF8091B0008F778093B00006
:1001600008958091B0008F7DF9CFCF93DF93282F32
:1001700030E0F901E255FF4F8491F901E656FF4F57
:10018000D491F901EA57FF4FC491CC23A1F081111A
:100190000E948C00EC2FF0E0EE0FFF1FE458FF4FA1
:1001A000A591B491EC91ED2381E090E009F480E019
:1001B000DF91CF91089580E090E0FACF1F93CF9325
:1001C000DF93282F30E0F901E255FF4F8491F901C8
:1001D000E656FF4FD491F901EA57FF4FC491CC2363
:1001E000A9F0162F81110E948C00EC2FF0E0EE0F89
:1001F000FF1FEE58FF4FA591B4918FB7F894EC9183
:10020000111108C0D095DE23DC938FBFDF91CF9111
:100210001F910895DE2BF8CFCF93DF9390E0FC0180
:10022000E656FF4F24918A579F4FFC018491882303
:10023000D1F090E0880F991FFC01E859FF4FA5917C
:10024000B491FC01EE58FF4FC591D491623071F426
:100250009FB7F8943C91822F809583238C93E881FB
:100260002E2B28839FBFDF91CF9108958FB7F894ED
:10027000EC912E2B2C938FBFF6CF3FB7F894809143
:10028000570190915801A0915901B0915A0126B59A
:10029000A89B05C02F3F19F00196A11DB11D3FBFBE
:1002A000BA2FA92F982F8827BC01CD01620F711D8D
:1002B000811D911D42E0660F771F881F991F4A9587
:1002C000D1F708958F929F92AF92BF92CF92DF9213
:1002D000EF92FF924B015C010E943D016B017C019A
:1002E0000E943D016C197D098E099F09683E73408B
:1002F00081059105A8F321E0821A9108A108B108AF
:1003000088EEC80E83E0D81EE11CF11C8114910414
:10031000A104B10429F7FF90EF90DF90CF90BF9038
:10032000AF909F908F900895AF92BF92CF92DF923F
:10033000EF92FF920F931F93CF93DF936C017B019A
:100340008B01040F151FEB015E01AE18BF08C0172B
:10035000D10759F06991D601ED91FC910190F0819E
:10036000E02DC6010995892B79F7C501DF91CF9161
:100370001F910F91FF90EF90DF90CF90BF90AF90C3
:100380000895FC01538D448D252F30E0842F90E09B
:10039000821B930B541710F0CF9608950197089580
:1003A000FC01918D828D981761F0A28DAE0FBF2F49
:1003B000B11D5D968C91928D9F5F9F73928F90E09F
:1003C00008958FEF9FEF0895FC01918D828D98170E
:1003D00031F0828DE80FF11D858D90E008958FEF4B
:1003E0009FEF0895FC01918D228D892F90E0805C14
:1003F0009F4F821B91098F73992708958BE591E098
:100400000E94F20121E0892B09F420E0822F089557
:1004100080E090E0892B29F00E94FE0181110C946C
:1004200000000895FC01A48DA80FB92FB11DA35A97
:10043000BF4F2C91848D90E001968F739927848F04
:10044000A689B7892C93A089B1898C918370806427
:100450008C93938D848D981306C00288F389E02DC8
:1004600080818F7D80830895EF92FF920F931F9379
:10047000CF93DF93EC0181E0888F9B8D8C8D981357
:100480001AC0E889F989808185FF15C09FB7F89463
:10049000EE89FF896083E889F989808183708064AF
:1004A00080839FBF81E090E0DF91CF911F910F91FA
:1004B000FF90EF900895F62E0B8D10E00F5F1F4F09
:1004C0000F731127E02E8C8D8E110CC00FB607FC18
:1004D000FACFE889F989808185FFF5CFCE010E94A6
:1004E0001202F1CFEB8DEC0FFD2FF11DE35AFF4F00
:1004F000F0829FB7F8940B8FEA89FB898081806234
:10050000CFCFCF93DF93EC01888D8823B9F0AA89F0
:10051000BB89E889F9898C9185FD03C0808186FDBE
:100520000DC00FB607FCF7CF8C9185FFF2CF80810D
:1005300085FFEDCFCE010E941202E9CFDF91CF916E
:100540000895CF93DF93FC0101900020E9F73197E4
:10055000AF01481B590BBC018BE591E00E9494014F
:10056000EC0142E050E062E171E08BE591E00E9435
:1005700094018C0F9D1FDF91CF9108951F920F92D0
:100580000FB60F9211242F933F938F939F93AF93A6
:10059000BF938091530190915401A0915501B09166
:1005A00056013091520123E0230F2D3758F5019663
:1005B000A11DB11D209352018093530190935401CA
:1005C000A0935501B0935601809157019091580125
:1005D000A0915901B0915A010196A11DB11D8093BE
:1005E000570190935801A0935901B0935A01BF91BC
:1005F000AF919F918F913F912F910F900FBE0F90D0
:100600001F90189526E8230F0296A11DB11DD2CF89
:100610001F920F920FB60F9211242F933F934F9377
:100620005F936F937F938F939F93AF93BF93EF935A
:10063000FF938BE591E00E941202FF91EF91BF9131
:10064000AF919F918F917F916F915F914F913F916A
:100650002F910F900FBE0F901F9018951F920F9221
:100660000FB60F9211242F938F939F93EF93FF93C5
:10067000E0916B01F0916C018081E0917101F0914A
:10068000720182FD1BC09081809174018F5F8F7316
:1006900020917501821741F0E0917401F0E0E55A74
:1006A000FE4F958F80937401FF91EF919F918F91F1
:1006B0002F910F900FBE0F901F9018958081F4CF4F
:1006C000789484B5826084BD84B5816084BD85B52D
:1006D000826085BD85B5816085BD80916E00816039
:1006E00080936E00109281008091810082608093DF
:1006F00081008091810081608093810080918000E1
:100700008160809380008091B10084608093B1000B
:100710008091B00081608093B00080917A00846005
:1007200080937A0080917A00826080937A00809131
:100730007A00816080937A0080917A00806880934B
:100740007A001092C100E0916B01F0916C0182E09F
:100750008083E0916701F09168011082E091690166
:10076000F0916A018FEC808310927301E0916F0128
:10077000F091700186E08083E0916D01F0916E014F
:10078000808180618083E0916D01F0916E018081B4
:1007900088608083E0916D01F0916E0180818068B6
:1007A0008083E0916D01F0916E0180818F7D808367
:1007B00061E08DE00E940C0162E083E00E940C0188
:1007C00062E088E00E940C0100E010E083E00E94FB
:1007D000B500EC01909351018093500188E00E9494
:1007E000B500209799F50197B1F485E191E00E9459
:1007F000A10261E08DE00E94DE0063E070E080E035
:1008000090E00E94620160E08DE00E94DE0088E2DC
:1008100091E00E94A1028BE591E00E94F20118167E
:10082000190654F48BE591E00E94D001823409F45A
:1008300050C02CF58134C1F10115110539F20E9427
:10084000FE01882319F20E940000C0CF892B19F7FE
:10085000219709F782E391E00E94A10261E08DE017
:100860000E94DE0063E070E080E090E00E946201A0
:1008700060E08DE00E94DE0085E491E0CACF8D3417
:10088000DCF661E08DE00E94DE0068E070E080E070
:1008900090E00E94620160E08DE00E94DE0060E175
:1008A00070E080E090E012C061E08DE00E94DE0028
:1008B0006AE070E080E090E00E94620160E08DE01C
:1008C0000E94DE0063E070E080E090E00E94620140
:1008D000B3CF61E08DE00E94DE0060E170E080E077
:1008E00090E00E94620160E08DE00E94DE0068E01E
:1008F00070E080E090E0EACFEBE5F1E01382128255
:1009000088EE93E0A0E0B0E084839583A683B7836C
:1009100084E091E09183808385EC90E095878487E3
:1009200084EC90E09787868780EC90E0918B808BB9
:1009300081EC90E0938B828B82EC90E0958B848BA2
:1009400086EC90E0978B868B118E128E138E148E10
:100950000895EE0FFF1F0590F491E02D0994F8948F
:02096000FFCFC7
:100962000000000034029401C1018102F201D001B1
:10097200E4010D0A00626F74616F30315072657369
:1009820073696F6E61646F004E6F7468696E673071
:100992003100626F74616F30325072657373696FC8
:1009A2006E61646F004E6F7468696E67303200006A
:00000001FF
